{"abi":[{"type":"constructor","inputs":[],"stateMutability":"nonpayable"},{"type":"function","name":"approve","inputs":[{"name":"to","type":"address","internalType":"address"},{"name":"tokenId","type":"uint256","internalType":"uint256"}],"outputs":[],"stateMutability":"nonpayable"},{"type":"function","name":"balanceOf","inputs":[{"name":"owner","type":"address","internalType":"address"}],"outputs":[{"name":"","type":"uint256","internalType":"uint256"}],"stateMutability":"view"},{"type":"function","name":"getApproved","inputs":[{"name":"tokenId","type":"uint256","internalType":"uint256"}],"outputs":[{"name":"","type":"address","internalType":"address"}],"stateMutability":"view"},{"type":"function","name":"getTokenCounter","inputs":[],"outputs":[{"name":"","type":"uint256","internalType":"uint256"}],"stateMutability":"view"},{"type":"function","name":"isApprovedForAll","inputs":[{"name":"owner","type":"address","internalType":"address"},{"name":"operator","type":"address","internalType":"address"}],"outputs":[{"name":"","type":"bool","internalType":"bool"}],"stateMutability":"view"},{"type":"function","name":"mintMixtape","inputs":[{"name":"recipient","type":"address","internalType":"address"},{"name":"tokenURI","type":"string","internalType":"string"}],"outputs":[{"name":"","type":"uint256","internalType":"uint256"}],"stateMutability":"nonpayable"},{"type":"function","name":"name","inputs":[],"outputs":[{"name":"","type":"string","internalType":"string"}],"stateMutability":"view"},{"type":"function","name":"owner","inputs":[],"outputs":[{"name":"","type":"address","internalType":"address"}],"stateMutability":"view"},{"type":"function","name":"ownerOf","inputs":[{"name":"tokenId","type":"uint256","internalType":"uint256"}],"outputs":[{"name":"","type":"address","internalType":"address"}],"stateMutability":"view"},{"type":"function","name":"renounceOwnership","inputs":[],"outputs":[],"stateMutability":"nonpayable"},{"type":"function","name":"safeTransferFrom","inputs":[{"name":"from","type":"address","internalType":"address"},{"name":"to","type":"address","internalType":"address"},{"name":"tokenId","type":"uint256","internalType":"uint256"}],"outputs":[],"stateMutability":"nonpayable"},{"type":"function","name":"safeTransferFrom","inputs":[{"name":"from","type":"address","internalType":"address"},{"name":"to","type":"address","internalType":"address"},{"name":"tokenId","type":"uint256","internalType":"uint256"},{"name":"data","type":"bytes","internalType":"bytes"}],"outputs":[],"stateMutability":"nonpayable"},{"type":"function","name":"setApprovalForAll","inputs":[{"name":"operator","type":"address","internalType":"address"},{"name":"approved","type":"bool","internalType":"bool"}],"outputs":[],"stateMutability":"nonpayable"},{"type":"function","name":"supportsInterface","inputs":[{"name":"interfaceId","type":"bytes4","internalType":"bytes4"}],"outputs":[{"name":"","type":"bool","internalType":"bool"}],"stateMutability":"view"},{"type":"function","name":"symbol","inputs":[],"outputs":[{"name":"","type":"string","internalType":"string"}],"stateMutability":"view"},{"type":"function","name":"tokenCounter","inputs":[],"outputs":[{"name":"","type":"uint256","internalType":"uint256"}],"stateMutability":"view"},{"type":"function","name":"tokenURI","inputs":[{"name":"tokenId","type":"uint256","internalType":"uint256"}],"outputs":[{"name":"","type":"string","internalType":"string"}],"stateMutability":"view"},{"type":"function","name":"transferFrom","inputs":[{"name":"from","type":"address","internalType":"address"},{"name":"to","type":"address","internalType":"address"},{"name":"tokenId","type":"uint256","internalType":"uint256"}],"outputs":[],"stateMutability":"nonpayable"},{"type":"function","name":"transferOwnership","inputs":[{"name":"newOwner","type":"address","internalType":"address"}],"outputs":[],"stateMutability":"nonpayable"},{"type":"event","name":"Approval","inputs":[{"name":"owner","type":"address","indexed":true,"internalType":"address"},{"name":"approved","type":"address","indexed":true,"internalType":"address"},{"name":"tokenId","type":"uint256","indexed":true,"internalType":"uint256"}],"anonymous":false},{"type":"event","name":"ApprovalForAll","inputs":[{"name":"owner","type":"address","indexed":true,"internalType":"address"},{"name":"operator","type":"address","indexed":true,"internalType":"address"},{"name":"approved","type":"bool","indexed":false,"internalType":"bool"}],"anonymous":false},{"type":"event","name":"BatchMetadataUpdate","inputs":[{"name":"_fromTokenId","type":"uint256","indexed":false,"internalType":"uint256"},{"name":"_toTokenId","type":"uint256","indexed":false,"internalType":"uint256"}],"anonymous":false},{"type":"event","name":"MetadataUpdate","inputs":[{"name":"_tokenId","type":"uint256","indexed":false,"internalType":"uint256"}],"anonymous":false},{"type":"event","name":"MixtapeMinted","inputs":[{"name":"to","type":"address","indexed":false,"internalType":"address"},{"name":"tokenId","type":"uint256","indexed":false,"internalType":"uint256"},{"name":"tokenURI","type":"string","indexed":false,"internalType":"string"}],"anonymous":false},{"type":"event","name":"OwnershipTransferred","inputs":[{"name":"previousOwner","type":"address","indexed":true,"internalType":"address"},{"name":"newOwner","type":"address","indexed":true,"internalType":"address"}],"anonymous":false},{"type":"event","name":"Transfer","inputs":[{"name":"from","type":"address","indexed":true,"internalType":"address"},{"name":"to","type":"address","indexed":true,"internalType":"address"},{"name":"tokenId","type":"uint256","indexed":true,"internalType":"uint256"}],"anonymous":false},{"type":"error","name":"ERC721IncorrectOwner","inputs":[{"name":"sender","type":"address","internalType":"address"},{"name":"tokenId","type":"uint256","internalType":"uint256"},{"name":"owner","type":"address","internalType":"address"}]},{"type":"error","name":"ERC721InsufficientApproval","inputs":[{"name":"operator","type":"address","internalType":"address"},{"name":"tokenId","type":"uint256","internalType":"uint256"}]},{"type":"error","name":"ERC721InvalidApprover","inputs":[{"name":"approver","type":"address","internalType":"address"}]},{"type":"error","name":"ERC721InvalidOperator","inputs":[{"name":"operator","type":"address","internalType":"address"}]},{"type":"error","name":"ERC721InvalidOwner","inputs":[{"name":"owner","type":"address","internalType":"address"}]},{"type":"error","name":"ERC721InvalidReceiver","inputs":[{"name":"receiver","type":"address","internalType":"address"}]},{"type":"error","name":"ERC721InvalidSender","inputs":[{"name":"sender","type":"address","internalType":"address"}]},{"type":"error","name":"ERC721NonexistentToken","inputs":[{"name":"tokenId","type":"uint256","internalType":"uint256"}]},{"type":"error","name":"OwnableInvalidOwner","inputs":[{"name":"owner","type":"address","internalType":"address"}]},{"type":"error","name":"OwnableUnauthorizedAccount","inputs":[{"name":"account","type":"address","internalType":"address"}]}],"bytecode":{"object":"0x608060405234801561000f575f5ffd5b50336040518060400160405280600a81526020017f4d6978746170654e4654000000000000000000000000000000000000000000008152506040518060400160405280600581526020017f4d544e4654000000000000000000000000000000000000000000000000000000815250815f908161008b919061042a565b50806001908161009b919061042a565b5050505f73ffffffffffffffffffffffffffffffffffffffff168173ffffffffffffffffffffffffffffffffffffffff160361010e575f6040517f1e4fbdf70000000000000000000000000000000000000000000000000000000081526004016101059190610538565b60405180910390fd5b61011d8161012a60201b60201c565b505f600881905550610551565b5f60075f9054906101000a900473ffffffffffffffffffffffffffffffffffffffff1690508160075f6101000a81548173ffffffffffffffffffffffffffffffffffffffff021916908373ffffffffffffffffffffffffffffffffffffffff1602179055508173ffffffffffffffffffffffffffffffffffffffff168173ffffffffffffffffffffffffffffffffffffffff167f8be0079c531659141344cd1fd0a4f28419497f9722a3daafe3b4186f6b6457e060405160405180910390a35050565b5f81519050919050565b7f4e487b71000000000000000000000000000000000000000000000000000000005f52604160045260245ffd5b7f4e487b71000000000000000000000000000000000000000000000000000000005f52602260045260245ffd5b5f600282049050600182168061026857607f821691505b60208210810361027b5761027a610224565b5b50919050565b5f819050815f5260205f209050919050565b5f6020601f8301049050919050565b5f82821b905092915050565b5f600883026102dd7fffffffffffffffffffffffffffffffffffffffffffffffffffffffffffffffff826102a2565b6102e786836102a2565b95508019841693508086168417925050509392505050565b5f819050919050565b5f819050919050565b5f61032b610326610321846102ff565b610308565b6102ff565b9050919050565b5f819050919050565b61034483610311565b61035861035082610332565b8484546102ae565b825550505050565b5f5f905090565b61036f610360565b61037a81848461033b565b505050565b5b8181101561039d576103925f82610367565b600181019050610380565b5050565b601f8211156103e2576103b381610281565b6103bc84610293565b810160208510156103cb578190505b6103df6103d785610293565b83018261037f565b50505b505050565b5f82821c905092915050565b5f6104025f19846008026103e7565b1980831691505092915050565b5f61041a83836103f3565b9150826002028217905092915050565b610433826101ed565b67ffffffffffffffff81111561044c5761044b6101f7565b5b6104568254610251565b6104618282856103a1565b5f60209050601f831160018114610492575f8415610480578287015190505b61048a858261040f565b8655506104f1565b601f1984166104a086610281565b5f5b828110156104c7578489015182556001820191506020850194506020810190506104a2565b868310156104e457848901516104e0601f8916826103f3565b8355505b6001600288020188555050505b505050505050565b5f73ffffffffffffffffffffffffffffffffffffffff82169050919050565b5f610522826104f9565b9050919050565b61053281610518565b82525050565b5f60208201905061054b5f830184610529565b92915050565b61265c8061055e5f395ff3fe608060405234801561000f575f5ffd5b506004361061011f575f3560e01c8063715018a6116100ab578063c87b56dd1161006f578063c87b56dd146102f1578063ca47c85f14610321578063d082e38114610351578063e985e9c51461036f578063f2fde38b1461039f5761011f565b8063715018a6146102735780638da5cb5b1461027d57806395d89b411461029b578063a22cb465146102b9578063b88d4fde146102d55761011f565b806323b872dd116100f257806323b872dd146101bd57806342842e0e146101d95780636352211e146101f55780636e02007d1461022557806370a08231146102435761011f565b806301ffc9a71461012357806306fdde0314610153578063081812fc14610171578063095ea7b3146101a1575b5f5ffd5b61013d60048036038101906101389190611b04565b6103bb565b60405161014a9190611b49565b60405180910390f35b61015b61041b565b6040516101689190611bd2565b60405180910390f35b61018b60048036038101906101869190611c25565b6104aa565b6040516101989190611c8f565b60405180910390f35b6101bb60048036038101906101b69190611cd2565b6104c5565b005b6101d760048036038101906101d29190611d10565b6104db565b005b6101f360048036038101906101ee9190611d10565b6105da565b005b61020f600480360381019061020a9190611c25565b6105f9565b60405161021c9190611c8f565b60405180910390f35b61022d61060a565b60405161023a9190611d6f565b60405180910390f35b61025d60048036038101906102589190611d88565b610613565b60405161026a9190611d6f565b60405180910390f35b61027b6106c9565b005b6102856106dc565b6040516102929190611c8f565b60405180910390f35b6102a3610704565b6040516102b09190611bd2565b60405180910390f35b6102d360048036038101906102ce9190611ddd565b610794565b005b6102ef60048036038101906102ea9190611f47565b6107aa565b005b61030b60048036038101906103069190611c25565b6107cf565b6040516103189190611bd2565b60405180910390f35b61033b60048036038101906103369190612065565b6108da565b6040516103489190611d6f565b60405180910390f35b61035961095b565b6040516103669190611d6f565b60405180910390f35b610389600480360381019061038491906120bf565b610961565b6040516103969190611b49565b60405180910390f35b6103b960048036038101906103b49190611d88565b6109ef565b005b5f634906490660e01b7bffffffffffffffffffffffffffffffffffffffffffffffffffffffff1916827bffffffffffffffffffffffffffffffffffffffffffffffffffffffff19161480610414575061041382610a73565b5b9050919050565b60605f80546104299061212a565b80601f01602080910402602001604051908101604052809291908181526020018280546104559061212a565b80156104a05780601f10610477576101008083540402835291602001916104a0565b820191905f5260205f20905b81548152906001019060200180831161048357829003601f168201915b5050505050905090565b5f6104b482610b54565b506104be82610bda565b9050919050565b6104d782826104d2610c13565b610c1a565b5050565b5f73ffffffffffffffffffffffffffffffffffffffff168273ffffffffffffffffffffffffffffffffffffffff160361054b575f6040517f64a0ae920000000000000000000000000000000000000000000000000000000081526004016105429190611c8f565b60405180910390fd5b5f61055e8383610559610c13565b610c2c565b90508373ffffffffffffffffffffffffffffffffffffffff168173ffffffffffffffffffffffffffffffffffffffff16146105d4578382826040517f64283d7b0000000000000000000000000000000000000000000000000000000081526004016105cb9392919061215a565b60405180910390fd5b50505050565b6105f483838360405180602001604052805f8152506107aa565b505050565b5f61060382610b54565b9050919050565b5f600854905090565b5f5f73ffffffffffffffffffffffffffffffffffffffff168273ffffffffffffffffffffffffffffffffffffffff1603610684575f6040517f89c62b6400000000000000000000000000000000000000000000000000000000815260040161067b9190611c8f565b60405180910390fd5b60035f8373ffffffffffffffffffffffffffffffffffffffff1673ffffffffffffffffffffffffffffffffffffffff1681526020019081526020015f20549050919050565b6106d1610e37565b6106da5f610ebe565b565b5f60075f9054906101000a900473ffffffffffffffffffffffffffffffffffffffff16905090565b6060600180546107139061212a565b80601f016020809104026020016040519081016040528092919081815260200182805461073f9061212a565b801561078a5780601f106107615761010080835404028352916020019161078a565b820191905f5260205f20905b81548152906001019060200180831161076d57829003601f168201915b5050505050905090565b6107a661079f610c13565b8383610f81565b5050565b6107b58484846104db565b6107c96107c0610c13565b858585856110ea565b50505050565b60606107da82610b54565b505f60065f8481526020019081526020015f2080546107f89061212a565b80601f01602080910402602001604051908101604052809291908181526020018280546108249061212a565b801561086f5780601f106108465761010080835404028352916020019161086f565b820191905f5260205f20905b81548152906001019060200180831161085257829003601f168201915b505050505090505f61087f611296565b90505f8151036108935781925050506108d5565b5f825111156108c75780826040516020016108af9291906121c9565b604051602081830303815290604052925050506108d5565b6108d0846112ac565b925050505b919050565b5f6108e3610e37565b5f60085490506108f38482611312565b6108fd818461132f565b600160085f82825461090f9190612219565b925050819055507f1c050f2160349ee0705d39af7c120b73003a76bbba5646d382ff3ccba2fe87ef8482856040516109499392919061224c565b60405180910390a18091505092915050565b60085481565b5f60055f8473ffffffffffffffffffffffffffffffffffffffff1673ffffffffffffffffffffffffffffffffffffffff1681526020019081526020015f205f8373ffffffffffffffffffffffffffffffffffffffff1673ffffffffffffffffffffffffffffffffffffffff1681526020019081526020015f205f9054906101000a900460ff16905092915050565b6109f7610e37565b5f73ffffffffffffffffffffffffffffffffffffffff168173ffffffffffffffffffffffffffffffffffffffff1603610a67575f6040517f1e4fbdf7000000000000000000000000000000000000000000000000000000008152600401610a5e9190611c8f565b60405180910390fd5b610a7081610ebe565b50565b5f7f80ac58cd000000000000000000000000000000000000000000000000000000007bffffffffffffffffffffffffffffffffffffffffffffffffffffffff1916827bffffffffffffffffffffffffffffffffffffffffffffffffffffffff19161480610b3d57507f5b5e139f000000000000000000000000000000000000000000000000000000007bffffffffffffffffffffffffffffffffffffffffffffffffffffffff1916827bffffffffffffffffffffffffffffffffffffffffffffffffffffffff1916145b80610b4d5750610b4c82611389565b5b9050919050565b5f5f610b5f836113f2565b90505f73ffffffffffffffffffffffffffffffffffffffff168173ffffffffffffffffffffffffffffffffffffffff1603610bd157826040517f7e273289000000000000000000000000000000000000000000000000000000008152600401610bc89190611d6f565b60405180910390fd5b80915050919050565b5f60045f8381526020019081526020015f205f9054906101000a900473ffffffffffffffffffffffffffffffffffffffff169050919050565b5f33905090565b610c27838383600161142b565b505050565b5f5f610c37846113f2565b90505f73ffffffffffffffffffffffffffffffffffffffff168373ffffffffffffffffffffffffffffffffffffffff1614610c7857610c778184866115ea565b5b5f73ffffffffffffffffffffffffffffffffffffffff168173ffffffffffffffffffffffffffffffffffffffff1614610d0357610cb75f855f5f61142b565b600160035f8373ffffffffffffffffffffffffffffffffffffffff1673ffffffffffffffffffffffffffffffffffffffff1681526020019081526020015f205f82825403925050819055505b5f73ffffffffffffffffffffffffffffffffffffffff168573ffffffffffffffffffffffffffffffffffffffff1614610d8257600160035f8773ffffffffffffffffffffffffffffffffffffffff1673ffffffffffffffffffffffffffffffffffffffff1681526020019081526020015f205f82825401925050819055505b8460025f8681526020019081526020015f205f6101000a81548173ffffffffffffffffffffffffffffffffffffffff021916908373ffffffffffffffffffffffffffffffffffffffff160217905550838573ffffffffffffffffffffffffffffffffffffffff168273ffffffffffffffffffffffffffffffffffffffff167fddf252ad1be2c89b69c2b068fc378daa952ba7f163c4a11628f55a4df523b3ef60405160405180910390a4809150509392505050565b610e3f610c13565b73ffffffffffffffffffffffffffffffffffffffff16610e5d6106dc565b73ffffffffffffffffffffffffffffffffffffffff1614610ebc57610e80610c13565b6040517f118cdaa7000000000000000000000000000000000000000000000000000000008152600401610eb39190611c8f565b60405180910390fd5b565b5f60075f9054906101000a900473ffffffffffffffffffffffffffffffffffffffff1690508160075f6101000a81548173ffffffffffffffffffffffffffffffffffffffff021916908373ffffffffffffffffffffffffffffffffffffffff1602179055508173ffffffffffffffffffffffffffffffffffffffff168173ffffffffffffffffffffffffffffffffffffffff167f8be0079c531659141344cd1fd0a4f28419497f9722a3daafe3b4186f6b6457e060405160405180910390a35050565b5f73ffffffffffffffffffffffffffffffffffffffff168273ffffffffffffffffffffffffffffffffffffffff1603610ff157816040517f5b08ba18000000000000000000000000000000000000000000000000000000008152600401610fe89190611c8f565b60405180910390fd5b8060055f8573ffffffffffffffffffffffffffffffffffffffff1673ffffffffffffffffffffffffffffffffffffffff1681526020019081526020015f205f8473ffffffffffffffffffffffffffffffffffffffff1673ffffffffffffffffffffffffffffffffffffffff1681526020019081526020015f205f6101000a81548160ff0219169083151502179055508173ffffffffffffffffffffffffffffffffffffffff168373ffffffffffffffffffffffffffffffffffffffff167f17307eab39ab6107e8899845ad3d59bd9653f200f220920489ca2b5937696c31836040516110dd9190611b49565b60405180910390a3505050565b5f8373ffffffffffffffffffffffffffffffffffffffff163b111561128f578273ffffffffffffffffffffffffffffffffffffffff1663150b7a02868685856040518563ffffffff1660e01b815260040161114894939291906122da565b6020604051808303815f875af192505050801561118357506040513d601f19601f820116820180604052508101906111809190612338565b60015b611204573d805f81146111b1576040519150601f19603f3d011682016040523d82523d5f602084013e6111b6565b606091505b505f8151036111fc57836040517f64a0ae920000000000000000000000000000000000000000000000000000000081526004016111f39190611c8f565b60405180910390fd5b805181602001fd5b63150b7a0260e01b7bffffffffffffffffffffffffffffffffffffffffffffffffffffffff1916817bffffffffffffffffffffffffffffffffffffffffffffffffffffffff19161461128d57836040517f64a0ae920000000000000000000000000000000000000000000000000000000081526004016112849190611c8f565b60405180910390fd5b505b5050505050565b606060405180602001604052805f815250905090565b60606112b782610b54565b505f6112c1611296565b90505f8151116112df5760405180602001604052805f81525061130a565b806112e9846116ad565b6040516020016112fa9291906121c9565b6040516020818303038152906040525b915050919050565b61132b828260405180602001604052805f815250611777565b5050565b8060065f8481526020019081526020015f20908161134d9190612503565b507ff8e1a15aba9398e019f0b49df1a4fde98ee17ae345cb5f6b5e2c27f5033e8ce78260405161137d9190611d6f565b60405180910390a15050565b5f7f01ffc9a7000000000000000000000000000000000000000000000000000000007bffffffffffffffffffffffffffffffffffffffffffffffffffffffff1916827bffffffffffffffffffffffffffffffffffffffffffffffffffffffff1916149050919050565b5f60025f8381526020019081526020015f205f9054906101000a900473ffffffffffffffffffffffffffffffffffffffff169050919050565b808061146357505f73ffffffffffffffffffffffffffffffffffffffff168273ffffffffffffffffffffffffffffffffffffffff1614155b15611595575f61147284610b54565b90505f73ffffffffffffffffffffffffffffffffffffffff168373ffffffffffffffffffffffffffffffffffffffff16141580156114dc57508273ffffffffffffffffffffffffffffffffffffffff168173ffffffffffffffffffffffffffffffffffffffff1614155b80156114ef57506114ed8184610961565b155b1561153157826040517fa9fbf51f0000000000000000000000000000000000000000000000000000000081526004016115289190611c8f565b60405180910390fd5b811561159357838573ffffffffffffffffffffffffffffffffffffffff168273ffffffffffffffffffffffffffffffffffffffff167f8c5be1e5ebec7d5bd14f71427d1e84f3dd0314c0f7b2291e5b200ac8c7c3b92560405160405180910390a45b505b8360045f8581526020019081526020015f205f6101000a81548173ffffffffffffffffffffffffffffffffffffffff021916908373ffffffffffffffffffffffffffffffffffffffff16021790555050505050565b6115f583838361179a565b6116a8575f73ffffffffffffffffffffffffffffffffffffffff168373ffffffffffffffffffffffffffffffffffffffff160361166957806040517f7e2732890000000000000000000000000000000000000000000000000000000081526004016116609190611d6f565b60405180910390fd5b81816040517f177e802f00000000000000000000000000000000000000000000000000000000815260040161169f9291906125d2565b60405180910390fd5b505050565b60605f60016116bb8461185a565b0190505f8167ffffffffffffffff8111156116d9576116d8611e23565b5b6040519080825280601f01601f19166020018201604052801561170b5781602001600182028036833780820191505090505b5090505f82602001820190505b60011561176c578080600190039150507f3031323334353637383961626364656600000000000000000000000000000000600a86061a8153600a8581611761576117606125f9565b5b0494505f8503611718575b819350505050919050565b61178183836119ab565b61179561178c610c13565b5f8585856110ea565b505050565b5f5f73ffffffffffffffffffffffffffffffffffffffff168373ffffffffffffffffffffffffffffffffffffffff161415801561185157508273ffffffffffffffffffffffffffffffffffffffff168473ffffffffffffffffffffffffffffffffffffffff16148061181257506118118484610961565b5b8061185057508273ffffffffffffffffffffffffffffffffffffffff1661183883610bda565b73ffffffffffffffffffffffffffffffffffffffff16145b5b90509392505050565b5f5f5f90507a184f03e93ff9f4daa797ed6e38ed64bf6a1f01000000000000000083106118b6577a184f03e93ff9f4daa797ed6e38ed64bf6a1f01000000000000000083816118ac576118ab6125f9565b5b0492506040810190505b6d04ee2d6d415b85acef810000000083106118f3576d04ee2d6d415b85acef810000000083816118e9576118e86125f9565b5b0492506020810190505b662386f26fc10000831061192257662386f26fc100008381611918576119176125f9565b5b0492506010810190505b6305f5e100831061194b576305f5e1008381611941576119406125f9565b5b0492506008810190505b6127108310611970576127108381611966576119656125f9565b5b0492506004810190505b606483106119935760648381611989576119886125f9565b5b0492506002810190505b600a83106119a2576001810190505b80915050919050565b5f73ffffffffffffffffffffffffffffffffffffffff168273ffffffffffffffffffffffffffffffffffffffff1603611a1b575f6040517f64a0ae92000000000000000000000000000000000000000000000000000000008152600401611a129190611c8f565b60405180910390fd5b5f611a2783835f610c2c565b90505f73ffffffffffffffffffffffffffffffffffffffff168173ffffffffffffffffffffffffffffffffffffffff1614611a99575f6040517f73c6ac6e000000000000000000000000000000000000000000000000000000008152600401611a909190611c8f565b60405180910390fd5b505050565b5f604051905090565b5f5ffd5b5f5ffd5b5f7fffffffff0000000000000000000000000000000000000000000000000000000082169050919050565b611ae381611aaf565b8114611aed575f5ffd5b50565b5f81359050611afe81611ada565b92915050565b5f60208284031215611b1957611b18611aa7565b5b5f611b2684828501611af0565b91505092915050565b5f8115159050919050565b611b4381611b2f565b82525050565b5f602082019050611b5c5f830184611b3a565b92915050565b5f81519050919050565b5f82825260208201905092915050565b8281835e5f83830152505050565b5f601f19601f8301169050919050565b5f611ba482611b62565b611bae8185611b6c565b9350611bbe818560208601611b7c565b611bc781611b8a565b840191505092915050565b5f6020820190508181035f830152611bea8184611b9a565b905092915050565b5f819050919050565b611c0481611bf2565b8114611c0e575f5ffd5b50565b5f81359050611c1f81611bfb565b92915050565b5f60208284031215611c3a57611c39611aa7565b5b5f611c4784828501611c11565b91505092915050565b5f73ffffffffffffffffffffffffffffffffffffffff82169050919050565b5f611c7982611c50565b9050919050565b611c8981611c6f565b82525050565b5f602082019050611ca25f830184611c80565b92915050565b611cb181611c6f565b8114611cbb575f5ffd5b50565b5f81359050611ccc81611ca8565b92915050565b5f5f60408385031215611ce857611ce7611aa7565b5b5f611cf585828601611cbe565b9250506020611d0685828601611c11565b9150509250929050565b5f5f5f60608486031215611d2757611d26611aa7565b5b5f611d3486828701611cbe565b9350506020611d4586828701611cbe565b9250506040611d5686828701611c11565b9150509250925092565b611d6981611bf2565b82525050565b5f602082019050611d825f830184611d60565b92915050565b5f60208284031215611d9d57611d9c611aa7565b5b5f611daa84828501611cbe565b91505092915050565b611dbc81611b2f565b8114611dc6575f5ffd5b50565b5f81359050611dd781611db3565b92915050565b5f5f60408385031215611df357611df2611aa7565b5b5f611e0085828601611cbe565b9250506020611e1185828601611dc9565b9150509250929050565b5f5ffd5b5f5ffd5b7f4e487b71000000000000000000000000000000000000000000000000000000005f52604160045260245ffd5b611e5982611b8a565b810181811067ffffffffffffffff82111715611e7857611e77611e23565b5b80604052505050565b5f611e8a611a9e565b9050611e968282611e50565b919050565b5f67ffffffffffffffff821115611eb557611eb4611e23565b5b611ebe82611b8a565b9050602081019050919050565b828183375f83830152505050565b5f611eeb611ee684611e9b565b611e81565b905082815260208101848484011115611f0757611f06611e1f565b5b611f12848285611ecb565b509392505050565b5f82601f830112611f2e57611f2d611e1b565b5b8135611f3e848260208601611ed9565b91505092915050565b5f5f5f5f60808587031215611f5f57611f5e611aa7565b5b5f611f6c87828801611cbe565b9450506020611f7d87828801611cbe565b9350506040611f8e87828801611c11565b925050606085013567ffffffffffffffff811115611faf57611fae611aab565b5b611fbb87828801611f1a565b91505092959194509250565b5f67ffffffffffffffff821115611fe157611fe0611e23565b5b611fea82611b8a565b9050602081019050919050565b5f61200961200484611fc7565b611e81565b90508281526020810184848401111561202557612024611e1f565b5b612030848285611ecb565b509392505050565b5f82601f83011261204c5761204b611e1b565b5b813561205c848260208601611ff7565b91505092915050565b5f5f6040838503121561207b5761207a611aa7565b5b5f61208885828601611cbe565b925050602083013567ffffffffffffffff8111156120a9576120a8611aab565b5b6120b585828601612038565b9150509250929050565b5f5f604083850312156120d5576120d4611aa7565b5b5f6120e285828601611cbe565b92505060206120f385828601611cbe565b9150509250929050565b7f4e487b71000000000000000000000000000000000000000000000000000000005f52602260045260245ffd5b5f600282049050600182168061214157607f821691505b602082108103612154576121536120fd565b5b50919050565b5f60608201905061216d5f830186611c80565b61217a6020830185611d60565b6121876040830184611c80565b949350505050565b5f81905092915050565b5f6121a382611b62565b6121ad818561218f565b93506121bd818560208601611b7c565b80840191505092915050565b5f6121d48285612199565b91506121e08284612199565b91508190509392505050565b7f4e487b71000000000000000000000000000000000000000000000000000000005f52601160045260245ffd5b5f61222382611bf2565b915061222e83611bf2565b9250828201905080821115612246576122456121ec565b5b92915050565b5f60608201905061225f5f830186611c80565b61226c6020830185611d60565b818103604083015261227e8184611b9a565b9050949350505050565b5f81519050919050565b5f82825260208201905092915050565b5f6122ac82612288565b6122b68185612292565b93506122c6818560208601611b7c565b6122cf81611b8a565b840191505092915050565b5f6080820190506122ed5f830187611c80565b6122fa6020830186611c80565b6123076040830185611d60565b818103606083015261231981846122a2565b905095945050505050565b5f8151905061233281611ada565b92915050565b5f6020828403121561234d5761234c611aa7565b5b5f61235a84828501612324565b91505092915050565b5f819050815f5260205f209050919050565b5f6020601f8301049050919050565b5f82821b905092915050565b5f600883026123bf7fffffffffffffffffffffffffffffffffffffffffffffffffffffffffffffffff82612384565b6123c98683612384565b95508019841693508086168417925050509392505050565b5f819050919050565b5f6124046123ff6123fa84611bf2565b6123e1565b611bf2565b9050919050565b5f819050919050565b61241d836123ea565b6124316124298261240b565b848454612390565b825550505050565b5f5f905090565b612448612439565b612453818484612414565b505050565b5b818110156124765761246b5f82612440565b600181019050612459565b5050565b601f8211156124bb5761248c81612363565b61249584612375565b810160208510156124a4578190505b6124b86124b085612375565b830182612458565b50505b505050565b5f82821c905092915050565b5f6124db5f19846008026124c0565b1980831691505092915050565b5f6124f383836124cc565b9150826002028217905092915050565b61250c82611b62565b67ffffffffffffffff81111561252557612524611e23565b5b61252f825461212a565b61253a82828561247a565b5f60209050601f83116001811461256b575f8415612559578287015190505b61256385826124e8565b8655506125ca565b601f19841661257986612363565b5f5b828110156125a05784890151825560018201915060208501945060208101905061257b565b868310156125bd57848901516125b9601f8916826124cc565b8355505b6001600288020188555050505b505050505050565b5f6040820190506125e55f830185611c80565b6125f26020830184611d60565b9392505050565b7f4e487b71000000000000000000000000000000000000000000000000000000005f52601260045260245ffdfea264697066735822122012f8837c42c7149ac1fad6fb8f555de584c5b55399ff46d3922de2328e56ad4e64736f6c634300081c0033","linkReferences":{}},"methodIdentifiers":{"approve(address,uint256)":"095ea7b3","balanceOf(address)":"70a08231","getApproved(uint256)":"081812fc","getTokenCounter()":"6e02007d","isApprovedForAll(address,address)":"e985e9c5","mintMixtape(address,string)":"ca47c85f","name()":"06fdde03","owner()":"8da5cb5b","ownerOf(uint256)":"6352211e","renounceOwnership()":"715018a6","safeTransferFrom(address,address,uint256)":"42842e0e","safeTransferFrom(address,address,uint256,bytes)":"b88d4fde","setApprovalForAll(address,bool)":"a22cb465","supportsInterface(bytes4)":"01ffc9a7","symbol()":"95d89b41","tokenCounter()":"d082e381","tokenURI(uint256)":"c87b56dd","transferFrom(address,address,uint256)":"23b872dd","transferOwnership(address)":"f2fde38b"},"id":41}