{"abi":[{"type":"constructor","inputs":[],"stateMutability":"nonpayable"},{"type":"function","name":"approve","inputs":[{"name":"to","type":"address","internalType":"address"},{"name":"tokenId","type":"uint256","internalType":"uint256"}],"outputs":[],"stateMutability":"nonpayable"},{"type":"function","name":"balanceOf","inputs":[{"name":"owner","type":"address","internalType":"address"}],"outputs":[{"name":"","type":"uint256","internalType":"uint256"}],"stateMutability":"view"},{"type":"function","name":"getApproved","inputs":[{"name":"tokenId","type":"uint256","internalType":"uint256"}],"outputs":[{"name":"","type":"address","internalType":"address"}],"stateMutability":"view"},{"type":"function","name":"getTokenCounter","inputs":[],"outputs":[{"name":"","type":"uint256","internalType":"uint256"}],"stateMutability":"view"},{"type":"function","name":"isApprovedForAll","inputs":[{"name":"owner","type":"address","internalType":"address"},{"name":"operator","type":"address","internalType":"address"}],"outputs":[{"name":"","type":"bool","internalType":"bool"}],"stateMutability":"view"},{"type":"function","name":"mintMixtape","inputs":[{"name":"recipient","type":"address","internalType":"address"},{"name":"tokenURI","type":"string","internalType":"string"}],"outputs":[{"name":"","type":"uint256","internalType":"uint256"}],"stateMutability":"nonpayable"},{"type":"function","name":"name","inputs":[],"outputs":[{"name":"","type":"string","internalType":"string"}],"stateMutability":"view"},{"type":"function","name":"owner","inputs":[],"outputs":[{"name":"","type":"address","internalType":"address"}],"stateMutability":"view"},{"type":"function","name":"ownerOf","inputs":[{"name":"tokenId","type":"uint256","internalType":"uint256"}],"outputs":[{"name":"","type":"address","internalType":"address"}],"stateMutability":"view"},{"type":"function","name":"renounceOwnership","inputs":[],"outputs":[],"stateMutability":"nonpayable"},{"type":"function","name":"safeTransferFrom","inputs":[{"name":"from","type":"address","internalType":"address"},{"name":"to","type":"address","internalType":"address"},{"name":"tokenId","type":"uint256","internalType":"uint256"}],"outputs":[],"stateMutability":"nonpayable"},{"type":"function","name":"safeTransferFrom","inputs":[{"name":"from","type":"address","internalType":"address"},{"name":"to","type":"address","internalType":"address"},{"name":"tokenId","type":"uint256","internalType":"uint256"},{"name":"data","type":"bytes","internalType":"bytes"}],"outputs":[],"stateMutability":"nonpayable"},{"type":"function","name":"setApprovalForAll","inputs":[{"name":"operator","type":"address","internalType":"address"},{"name":"approved","type":"bool","internalType":"bool"}],"outputs":[],"stateMutability":"nonpayable"},{"type":"function","name":"supportsInterface","inputs":[{"name":"interfaceId","type":"bytes4","internalType":"bytes4"}],"outputs":[{"name":"","type":"bool","internalType":"bool"}],"stateMutability":"view"},{"type":"function","name":"symbol","inputs":[],"outputs":[{"name":"","type":"string","internalType":"string"}],"stateMutability":"view"},{"type":"function","name":"tokenCounter","inputs":[],"outputs":[{"name":"","type":"uint256","internalType":"uint256"}],"stateMutability":"view"},{"type":"function","name":"tokenURI","inputs":[{"name":"tokenId","type":"uint256","internalType":"uint256"}],"outputs":[{"name":"","type":"string","internalType":"string"}],"stateMutability":"view"},{"type":"function","name":"transferFrom","inputs":[{"name":"from","type":"address","internalType":"address"},{"name":"to","type":"address","internalType":"address"},{"name":"tokenId","type":"uint256","internalType":"uint256"}],"outputs":[],"stateMutability":"nonpayable"},{"type":"function","name":"transferOwnership","inputs":[{"name":"newOwner","type":"address","internalType":"address"}],"outputs":[],"stateMutability":"nonpayable"},{"type":"event","name":"Approval","inputs":[{"name":"owner","type":"address","indexed":true,"internalType":"address"},{"name":"approved","type":"address","indexed":true,"internalType":"address"},{"name":"tokenId","type":"uint256","indexed":true,"internalType":"uint256"}],"anonymous":false},{"type":"event","name":"ApprovalForAll","inputs":[{"name":"owner","type":"address","indexed":true,"internalType":"address"},{"name":"operator","type":"address","indexed":true,"internalType":"address"},{"name":"approved","type":"bool","indexed":false,"internalType":"bool"}],"anonymous":false},{"type":"event","name":"BatchMetadataUpdate","inputs":[{"name":"_fromTokenId","type":"uint256","indexed":false,"internalType":"uint256"},{"name":"_toTokenId","type":"uint256","indexed":false,"internalType":"uint256"}],"anonymous":false},{"type":"event","name":"MetadataUpdate","inputs":[{"name":"_tokenId","type":"uint256","indexed":false,"internalType":"uint256"}],"anonymous":false},{"type":"event","name":"MixtapeMinted","inputs":[{"name":"to","type":"address","indexed":true,"internalType":"address"},{"name":"tokenId","type":"uint256","indexed":true,"internalType":"uint256"},{"name":"tokenURI","type":"string","indexed":false,"internalType":"string"}],"anonymous":false},{"type":"event","name":"OwnershipTransferred","inputs":[{"name":"previousOwner","type":"address","indexed":true,"internalType":"address"},{"name":"newOwner","type":"address","indexed":true,"internalType":"address"}],"anonymous":false},{"type":"event","name":"Transfer","inputs":[{"name":"from","type":"address","indexed":true,"internalType":"address"},{"name":"to","type":"address","indexed":true,"internalType":"address"},{"name":"tokenId","type":"uint256","indexed":true,"internalType":"uint256"}],"anonymous":false},{"type":"error","name":"ERC721IncorrectOwner","inputs":[{"name":"sender","type":"address","internalType":"address"},{"name":"tokenId","type":"uint256","internalType":"uint256"},{"name":"owner","type":"address","internalType":"address"}]},{"type":"error","name":"ERC721InsufficientApproval","inputs":[{"name":"operator","type":"address","internalType":"address"},{"name":"tokenId","type":"uint256","internalType":"uint256"}]},{"type":"error","name":"ERC721InvalidApprover","inputs":[{"name":"approver","type":"address","internalType":"address"}]},{"type":"error","name":"ERC721InvalidOperator","inputs":[{"name":"operator","type":"address","internalType":"address"}]},{"type":"error","name":"ERC721InvalidOwner","inputs":[{"name":"owner","type":"address","internalType":"address"}]},{"type":"error","name":"ERC721InvalidReceiver","inputs":[{"name":"receiver","type":"address","internalType":"address"}]},{"type":"error","name":"ERC721InvalidSender","inputs":[{"name":"sender","type":"address","internalType":"address"}]},{"type":"error","name":"ERC721NonexistentToken","inputs":[{"name":"tokenId","type":"uint256","internalType":"uint256"}]},{"type":"error","name":"OwnableInvalidOwner","inputs":[{"name":"owner","type":"address","internalType":"address"}]},{"type":"error","name":"OwnableUnauthorizedAccount","inputs":[{"name":"account","type":"address","internalType":"address"}]}],"bytecode":{"object":"0x608060405234801561000f575f5ffd5b50336040518060400160405280600a81526020017f4d6978746170654e4654000000000000000000000000000000000000000000008152506040518060400160405280600581526020017f4d544e4654000000000000000000000000000000000000000000000000000000815250815f908161008b919061042b565b50806001908161009b919061042b565b5050505f73ffffffffffffffffffffffffffffffffffffffff168173ffffffffffffffffffffffffffffffffffffffff160361010e575f6040517f1e4fbdf70000000000000000000000000000000000000000000000000000000081526004016101059190610539565b60405180910390fd5b61011d8161012b60201b60201c565b506001600881905550610552565b5f60075f9054906101000a900473ffffffffffffffffffffffffffffffffffffffff1690508160075f6101000a81548173ffffffffffffffffffffffffffffffffffffffff021916908373ffffffffffffffffffffffffffffffffffffffff1602179055508173ffffffffffffffffffffffffffffffffffffffff168173ffffffffffffffffffffffffffffffffffffffff167f8be0079c531659141344cd1fd0a4f28419497f9722a3daafe3b4186f6b6457e060405160405180910390a35050565b5f81519050919050565b7f4e487b71000000000000000000000000000000000000000000000000000000005f52604160045260245ffd5b7f4e487b71000000000000000000000000000000000000000000000000000000005f52602260045260245ffd5b5f600282049050600182168061026957607f821691505b60208210810361027c5761027b610225565b5b50919050565b5f819050815f5260205f209050919050565b5f6020601f8301049050919050565b5f82821b905092915050565b5f600883026102de7fffffffffffffffffffffffffffffffffffffffffffffffffffffffffffffffff826102a3565b6102e886836102a3565b95508019841693508086168417925050509392505050565b5f819050919050565b5f819050919050565b5f61032c61032761032284610300565b610309565b610300565b9050919050565b5f819050919050565b61034583610312565b61035961035182610333565b8484546102af565b825550505050565b5f5f905090565b610370610361565b61037b81848461033c565b505050565b5b8181101561039e576103935f82610368565b600181019050610381565b5050565b601f8211156103e3576103b481610282565b6103bd84610294565b810160208510156103cc578190505b6103e06103d885610294565b830182610380565b50505b505050565b5f82821c905092915050565b5f6104035f19846008026103e8565b1980831691505092915050565b5f61041b83836103f4565b9150826002028217905092915050565b610434826101ee565b67ffffffffffffffff81111561044d5761044c6101f8565b5b6104578254610252565b6104628282856103a2565b5f60209050601f831160018114610493575f8415610481578287015190505b61048b8582610410565b8655506104f2565b601f1984166104a186610282565b5f5b828110156104c8578489015182556001820191506020850194506020810190506104a3565b868310156104e557848901516104e1601f8916826103f4565b8355505b6001600288020188555050505b505050505050565b5f73ffffffffffffffffffffffffffffffffffffffff82169050919050565b5f610523826104fa565b9050919050565b61053381610519565b82525050565b5f60208201905061054c5f83018461052a565b92915050565b6126348061055f5f395ff3fe608060405234801561000f575f5ffd5b506004361061011f575f3560e01c8063715018a6116100ab578063c87b56dd1161006f578063c87b56dd146102f1578063ca47c85f14610321578063d082e38114610351578063e985e9c51461036f578063f2fde38b1461039f5761011f565b8063715018a6146102735780638da5cb5b1461027d57806395d89b411461029b578063a22cb465146102b9578063b88d4fde146102d55761011f565b806323b872dd116100f257806323b872dd146101bd57806342842e0e146101d95780636352211e146101f55780636e02007d1461022557806370a08231146102435761011f565b806301ffc9a71461012357806306fdde0314610153578063081812fc14610171578063095ea7b3146101a1575b5f5ffd5b61013d60048036038101906101389190611b18565b6103bb565b60405161014a9190611b5d565b60405180910390f35b61015b61041b565b6040516101689190611be6565b60405180910390f35b61018b60048036038101906101869190611c39565b6104aa565b6040516101989190611ca3565b60405180910390f35b6101bb60048036038101906101b69190611ce6565b6104c5565b005b6101d760048036038101906101d29190611d24565b6104db565b005b6101f360048036038101906101ee9190611d24565b6105da565b005b61020f600480360381019061020a9190611c39565b6105f9565b60405161021c9190611ca3565b60405180910390f35b61022d61060a565b60405161023a9190611d83565b60405180910390f35b61025d60048036038101906102589190611d9c565b610613565b60405161026a9190611d83565b60405180910390f35b61027b6106c9565b005b6102856106dc565b6040516102929190611ca3565b60405180910390f35b6102a3610704565b6040516102b09190611be6565b60405180910390f35b6102d360048036038101906102ce9190611df1565b610794565b005b6102ef60048036038101906102ea9190611f5b565b6107aa565b005b61030b60048036038101906103069190611c39565b6107cf565b6040516103189190611be6565b60405180910390f35b61033b60048036038101906103369190612079565b6108da565b6040516103489190611d83565b60405180910390f35b61035961096f565b6040516103669190611d83565b60405180910390f35b610389600480360381019061038491906120d3565b610975565b6040516103969190611b5d565b60405180910390f35b6103b960048036038101906103b49190611d9c565b610a03565b005b5f634906490660e01b7bffffffffffffffffffffffffffffffffffffffffffffffffffffffff1916827bffffffffffffffffffffffffffffffffffffffffffffffffffffffff19161480610414575061041382610a87565b5b9050919050565b60605f80546104299061213e565b80601f01602080910402602001604051908101604052809291908181526020018280546104559061213e565b80156104a05780601f10610477576101008083540402835291602001916104a0565b820191905f5260205f20905b81548152906001019060200180831161048357829003601f168201915b5050505050905090565b5f6104b482610b68565b506104be82610bee565b9050919050565b6104d782826104d2610c27565b610c2e565b5050565b5f73ffffffffffffffffffffffffffffffffffffffff168273ffffffffffffffffffffffffffffffffffffffff160361054b575f6040517f64a0ae920000000000000000000000000000000000000000000000000000000081526004016105429190611ca3565b60405180910390fd5b5f61055e8383610559610c27565b610c40565b90508373ffffffffffffffffffffffffffffffffffffffff168173ffffffffffffffffffffffffffffffffffffffff16146105d4578382826040517f64283d7b0000000000000000000000000000000000000000000000000000000081526004016105cb9392919061216e565b60405180910390fd5b50505050565b6105f483838360405180602001604052805f8152506107aa565b505050565b5f61060382610b68565b9050919050565b5f600854905090565b5f5f73ffffffffffffffffffffffffffffffffffffffff168273ffffffffffffffffffffffffffffffffffffffff1603610684575f6040517f89c62b6400000000000000000000000000000000000000000000000000000000815260040161067b9190611ca3565b60405180910390fd5b60035f8373ffffffffffffffffffffffffffffffffffffffff1673ffffffffffffffffffffffffffffffffffffffff1681526020019081526020015f20549050919050565b6106d1610e4b565b6106da5f610ed2565b565b5f60075f9054906101000a900473ffffffffffffffffffffffffffffffffffffffff16905090565b6060600180546107139061213e565b80601f016020809104026020016040519081016040528092919081815260200182805461073f9061213e565b801561078a5780601f106107615761010080835404028352916020019161078a565b820191905f5260205f20905b81548152906001019060200180831161076d57829003601f168201915b5050505050905090565b6107a661079f610c27565b8383610f95565b5050565b6107b58484846104db565b6107c96107c0610c27565b858585856110fe565b50505050565b60606107da82610b68565b505f60065f8481526020019081526020015f2080546107f89061213e565b80601f01602080910402602001604051908101604052809291908181526020018280546108249061213e565b801561086f5780601f106108465761010080835404028352916020019161086f565b820191905f5260205f20905b81548152906001019060200180831161085257829003601f168201915b505050505090505f61087f6112aa565b90505f8151036108935781925050506108d5565b5f825111156108c75780826040516020016108af9291906121dd565b604051602081830303815290604052925050506108d5565b6108d0846112c0565b925050505b919050565b5f6108e3610e4b565b5f60085490506108f38482611326565b6108fd8184611343565b600160085f82825461090f919061222d565b92505081905550808473ffffffffffffffffffffffffffffffffffffffff167f1c050f2160349ee0705d39af7c120b73003a76bbba5646d382ff3ccba2fe87ef8560405161095d9190611be6565b60405180910390a38091505092915050565b60085481565b5f60055f8473ffffffffffffffffffffffffffffffffffffffff1673ffffffffffffffffffffffffffffffffffffffff1681526020019081526020015f205f8373ffffffffffffffffffffffffffffffffffffffff1673ffffffffffffffffffffffffffffffffffffffff1681526020019081526020015f205f9054906101000a900460ff16905092915050565b610a0b610e4b565b5f73ffffffffffffffffffffffffffffffffffffffff168173ffffffffffffffffffffffffffffffffffffffff1603610a7b575f6040517f1e4fbdf7000000000000000000000000000000000000000000000000000000008152600401610a729190611ca3565b60405180910390fd5b610a8481610ed2565b50565b5f7f80ac58cd000000000000000000000000000000000000000000000000000000007bffffffffffffffffffffffffffffffffffffffffffffffffffffffff1916827bffffffffffffffffffffffffffffffffffffffffffffffffffffffff19161480610b5157507f5b5e139f000000000000000000000000000000000000000000000000000000007bffffffffffffffffffffffffffffffffffffffffffffffffffffffff1916827bffffffffffffffffffffffffffffffffffffffffffffffffffffffff1916145b80610b615750610b608261139d565b5b9050919050565b5f5f610b7383611406565b90505f73ffffffffffffffffffffffffffffffffffffffff168173ffffffffffffffffffffffffffffffffffffffff1603610be557826040517f7e273289000000000000000000000000000000000000000000000000000000008152600401610bdc9190611d83565b60405180910390fd5b80915050919050565b5f60045f8381526020019081526020015f205f9054906101000a900473ffffffffffffffffffffffffffffffffffffffff169050919050565b5f33905090565b610c3b838383600161143f565b505050565b5f5f610c4b84611406565b90505f73ffffffffffffffffffffffffffffffffffffffff168373ffffffffffffffffffffffffffffffffffffffff1614610c8c57610c8b8184866115fe565b5b5f73ffffffffffffffffffffffffffffffffffffffff168173ffffffffffffffffffffffffffffffffffffffff1614610d1757610ccb5f855f5f61143f565b600160035f8373ffffffffffffffffffffffffffffffffffffffff1673ffffffffffffffffffffffffffffffffffffffff1681526020019081526020015f205f82825403925050819055505b5f73ffffffffffffffffffffffffffffffffffffffff168573ffffffffffffffffffffffffffffffffffffffff1614610d9657600160035f8773ffffffffffffffffffffffffffffffffffffffff1673ffffffffffffffffffffffffffffffffffffffff1681526020019081526020015f205f82825401925050819055505b8460025f8681526020019081526020015f205f6101000a81548173ffffffffffffffffffffffffffffffffffffffff021916908373ffffffffffffffffffffffffffffffffffffffff160217905550838573ffffffffffffffffffffffffffffffffffffffff168273ffffffffffffffffffffffffffffffffffffffff167fddf252ad1be2c89b69c2b068fc378daa952ba7f163c4a11628f55a4df523b3ef60405160405180910390a4809150509392505050565b610e53610c27565b73ffffffffffffffffffffffffffffffffffffffff16610e716106dc565b73ffffffffffffffffffffffffffffffffffffffff1614610ed057610e94610c27565b6040517f118cdaa7000000000000000000000000000000000000000000000000000000008152600401610ec79190611ca3565b60405180910390fd5b565b5f60075f9054906101000a900473ffffffffffffffffffffffffffffffffffffffff1690508160075f6101000a81548173ffffffffffffffffffffffffffffffffffffffff021916908373ffffffffffffffffffffffffffffffffffffffff1602179055508173ffffffffffffffffffffffffffffffffffffffff168173ffffffffffffffffffffffffffffffffffffffff167f8be0079c531659141344cd1fd0a4f28419497f9722a3daafe3b4186f6b6457e060405160405180910390a35050565b5f73ffffffffffffffffffffffffffffffffffffffff168273ffffffffffffffffffffffffffffffffffffffff160361100557816040517f5b08ba18000000000000000000000000000000000000000000000000000000008152600401610ffc9190611ca3565b60405180910390fd5b8060055f8573ffffffffffffffffffffffffffffffffffffffff1673ffffffffffffffffffffffffffffffffffffffff1681526020019081526020015f205f8473ffffffffffffffffffffffffffffffffffffffff1673ffffffffffffffffffffffffffffffffffffffff1681526020019081526020015f205f6101000a81548160ff0219169083151502179055508173ffffffffffffffffffffffffffffffffffffffff168373ffffffffffffffffffffffffffffffffffffffff167f17307eab39ab6107e8899845ad3d59bd9653f200f220920489ca2b5937696c31836040516110f19190611b5d565b60405180910390a3505050565b5f8373ffffffffffffffffffffffffffffffffffffffff163b11156112a3578273ffffffffffffffffffffffffffffffffffffffff1663150b7a02868685856040518563ffffffff1660e01b815260040161115c94939291906122b2565b6020604051808303815f875af192505050801561119757506040513d601f19601f820116820180604052508101906111949190612310565b60015b611218573d805f81146111c5576040519150601f19603f3d011682016040523d82523d5f602084013e6111ca565b606091505b505f81510361121057836040517f64a0ae920000000000000000000000000000000000000000000000000000000081526004016112079190611ca3565b60405180910390fd5b805181602001fd5b63150b7a0260e01b7bffffffffffffffffffffffffffffffffffffffffffffffffffffffff1916817bffffffffffffffffffffffffffffffffffffffffffffffffffffffff1916146112a157836040517f64a0ae920000000000000000000000000000000000000000000000000000000081526004016112989190611ca3565b60405180910390fd5b505b5050505050565b606060405180602001604052805f815250905090565b60606112cb82610b68565b505f6112d56112aa565b90505f8151116112f35760405180602001604052805f81525061131e565b806112fd846116c1565b60405160200161130e9291906121dd565b6040516020818303038152906040525b915050919050565b61133f828260405180602001604052805f81525061178b565b5050565b8060065f8481526020019081526020015f20908161136191906124db565b507ff8e1a15aba9398e019f0b49df1a4fde98ee17ae345cb5f6b5e2c27f5033e8ce7826040516113919190611d83565b60405180910390a15050565b5f7f01ffc9a7000000000000000000000000000000000000000000000000000000007bffffffffffffffffffffffffffffffffffffffffffffffffffffffff1916827bffffffffffffffffffffffffffffffffffffffffffffffffffffffff1916149050919050565b5f60025f8381526020019081526020015f205f9054906101000a900473ffffffffffffffffffffffffffffffffffffffff169050919050565b808061147757505f73ffffffffffffffffffffffffffffffffffffffff168273ffffffffffffffffffffffffffffffffffffffff1614155b156115a9575f61148684610b68565b90505f73ffffffffffffffffffffffffffffffffffffffff168373ffffffffffffffffffffffffffffffffffffffff16141580156114f057508273ffffffffffffffffffffffffffffffffffffffff168173ffffffffffffffffffffffffffffffffffffffff1614155b801561150357506115018184610975565b155b1561154557826040517fa9fbf51f00000000000000000000000000000000000000000000000000000000815260040161153c9190611ca3565b60405180910390fd5b81156115a757838573ffffffffffffffffffffffffffffffffffffffff168273ffffffffffffffffffffffffffffffffffffffff167f8c5be1e5ebec7d5bd14f71427d1e84f3dd0314c0f7b2291e5b200ac8c7c3b92560405160405180910390a45b505b8360045f8581526020019081526020015f205f6101000a81548173ffffffffffffffffffffffffffffffffffffffff021916908373ffffffffffffffffffffffffffffffffffffffff16021790555050505050565b6116098383836117ae565b6116bc575f73ffffffffffffffffffffffffffffffffffffffff168373ffffffffffffffffffffffffffffffffffffffff160361167d57806040517f7e2732890000000000000000000000000000000000000000000000000000000081526004016116749190611d83565b60405180910390fd5b81816040517f177e802f0000000000000000000000000000000000000000000000000000000081526004016116b39291906125aa565b60405180910390fd5b505050565b60605f60016116cf8461186e565b0190505f8167ffffffffffffffff8111156116ed576116ec611e37565b5b6040519080825280601f01601f19166020018201604052801561171f5781602001600182028036833780820191505090505b5090505f82602001820190505b600115611780578080600190039150507f3031323334353637383961626364656600000000000000000000000000000000600a86061a8153600a8581611775576117746125d1565b5b0494505f850361172c575b819350505050919050565b61179583836119bf565b6117a96117a0610c27565b5f8585856110fe565b505050565b5f5f73ffffffffffffffffffffffffffffffffffffffff168373ffffffffffffffffffffffffffffffffffffffff161415801561186557508273ffffffffffffffffffffffffffffffffffffffff168473ffffffffffffffffffffffffffffffffffffffff16148061182657506118258484610975565b5b8061186457508273ffffffffffffffffffffffffffffffffffffffff1661184c83610bee565b73ffffffffffffffffffffffffffffffffffffffff16145b5b90509392505050565b5f5f5f90507a184f03e93ff9f4daa797ed6e38ed64bf6a1f01000000000000000083106118ca577a184f03e93ff9f4daa797ed6e38ed64bf6a1f01000000000000000083816118c0576118bf6125d1565b5b0492506040810190505b6d04ee2d6d415b85acef81000000008310611907576d04ee2d6d415b85acef810000000083816118fd576118fc6125d1565b5b0492506020810190505b662386f26fc10000831061193657662386f26fc10000838161192c5761192b6125d1565b5b0492506010810190505b6305f5e100831061195f576305f5e1008381611955576119546125d1565b5b0492506008810190505b612710831061198457612710838161197a576119796125d1565b5b0492506004810190505b606483106119a7576064838161199d5761199c6125d1565b5b0492506002810190505b600a83106119b6576001810190505b80915050919050565b5f73ffffffffffffffffffffffffffffffffffffffff168273ffffffffffffffffffffffffffffffffffffffff1603611a2f575f6040517f64a0ae92000000000000000000000000000000000000000000000000000000008152600401611a269190611ca3565b60405180910390fd5b5f611a3b83835f610c40565b90505f73ffffffffffffffffffffffffffffffffffffffff168173ffffffffffffffffffffffffffffffffffffffff1614611aad575f6040517f73c6ac6e000000000000000000000000000000000000000000000000000000008152600401611aa49190611ca3565b60405180910390fd5b505050565b5f604051905090565b5f5ffd5b5f5ffd5b5f7fffffffff0000000000000000000000000000000000000000000000000000000082169050919050565b611af781611ac3565b8114611b01575f5ffd5b50565b5f81359050611b1281611aee565b92915050565b5f60208284031215611b2d57611b2c611abb565b5b5f611b3a84828501611b04565b91505092915050565b5f8115159050919050565b611b5781611b43565b82525050565b5f602082019050611b705f830184611b4e565b92915050565b5f81519050919050565b5f82825260208201905092915050565b8281835e5f83830152505050565b5f601f19601f8301169050919050565b5f611bb882611b76565b611bc28185611b80565b9350611bd2818560208601611b90565b611bdb81611b9e565b840191505092915050565b5f6020820190508181035f830152611bfe8184611bae565b905092915050565b5f819050919050565b611c1881611c06565b8114611c22575f5ffd5b50565b5f81359050611c3381611c0f565b92915050565b5f60208284031215611c4e57611c4d611abb565b5b5f611c5b84828501611c25565b91505092915050565b5f73ffffffffffffffffffffffffffffffffffffffff82169050919050565b5f611c8d82611c64565b9050919050565b611c9d81611c83565b82525050565b5f602082019050611cb65f830184611c94565b92915050565b611cc581611c83565b8114611ccf575f5ffd5b50565b5f81359050611ce081611cbc565b92915050565b5f5f60408385031215611cfc57611cfb611abb565b5b5f611d0985828601611cd2565b9250506020611d1a85828601611c25565b9150509250929050565b5f5f5f60608486031215611d3b57611d3a611abb565b5b5f611d4886828701611cd2565b9350506020611d5986828701611cd2565b9250506040611d6a86828701611c25565b9150509250925092565b611d7d81611c06565b82525050565b5f602082019050611d965f830184611d74565b92915050565b5f60208284031215611db157611db0611abb565b5b5f611dbe84828501611cd2565b91505092915050565b611dd081611b43565b8114611dda575f5ffd5b50565b5f81359050611deb81611dc7565b92915050565b5f5f60408385031215611e0757611e06611abb565b5b5f611e1485828601611cd2565b9250506020611e2585828601611ddd565b9150509250929050565b5f5ffd5b5f5ffd5b7f4e487b71000000000000000000000000000000000000000000000000000000005f52604160045260245ffd5b611e6d82611b9e565b810181811067ffffffffffffffff82111715611e8c57611e8b611e37565b5b80604052505050565b5f611e9e611ab2565b9050611eaa8282611e64565b919050565b5f67ffffffffffffffff821115611ec957611ec8611e37565b5b611ed282611b9e565b9050602081019050919050565b828183375f83830152505050565b5f611eff611efa84611eaf565b611e95565b905082815260208101848484011115611f1b57611f1a611e33565b5b611f26848285611edf565b509392505050565b5f82601f830112611f4257611f41611e2f565b5b8135611f52848260208601611eed565b91505092915050565b5f5f5f5f60808587031215611f7357611f72611abb565b5b5f611f8087828801611cd2565b9450506020611f9187828801611cd2565b9350506040611fa287828801611c25565b925050606085013567ffffffffffffffff811115611fc357611fc2611abf565b5b611fcf87828801611f2e565b91505092959194509250565b5f67ffffffffffffffff821115611ff557611ff4611e37565b5b611ffe82611b9e565b9050602081019050919050565b5f61201d61201884611fdb565b611e95565b90508281526020810184848401111561203957612038611e33565b5b612044848285611edf565b509392505050565b5f82601f8301126120605761205f611e2f565b5b813561207084826020860161200b565b91505092915050565b5f5f6040838503121561208f5761208e611abb565b5b5f61209c85828601611cd2565b925050602083013567ffffffffffffffff8111156120bd576120bc611abf565b5b6120c98582860161204c565b9150509250929050565b5f5f604083850312156120e9576120e8611abb565b5b5f6120f685828601611cd2565b925050602061210785828601611cd2565b9150509250929050565b7f4e487b71000000000000000000000000000000000000000000000000000000005f52602260045260245ffd5b5f600282049050600182168061215557607f821691505b60208210810361216857612167612111565b5b50919050565b5f6060820190506121815f830186611c94565b61218e6020830185611d74565b61219b6040830184611c94565b949350505050565b5f81905092915050565b5f6121b782611b76565b6121c181856121a3565b93506121d1818560208601611b90565b80840191505092915050565b5f6121e882856121ad565b91506121f482846121ad565b91508190509392505050565b7f4e487b71000000000000000000000000000000000000000000000000000000005f52601160045260245ffd5b5f61223782611c06565b915061224283611c06565b925082820190508082111561225a57612259612200565b5b92915050565b5f81519050919050565b5f82825260208201905092915050565b5f61228482612260565b61228e818561226a565b935061229e818560208601611b90565b6122a781611b9e565b840191505092915050565b5f6080820190506122c55f830187611c94565b6122d26020830186611c94565b6122df6040830185611d74565b81810360608301526122f1818461227a565b905095945050505050565b5f8151905061230a81611aee565b92915050565b5f6020828403121561232557612324611abb565b5b5f612332848285016122fc565b91505092915050565b5f819050815f5260205f209050919050565b5f6020601f8301049050919050565b5f82821b905092915050565b5f600883026123977fffffffffffffffffffffffffffffffffffffffffffffffffffffffffffffffff8261235c565b6123a1868361235c565b95508019841693508086168417925050509392505050565b5f819050919050565b5f6123dc6123d76123d284611c06565b6123b9565b611c06565b9050919050565b5f819050919050565b6123f5836123c2565b612409612401826123e3565b848454612368565b825550505050565b5f5f905090565b612420612411565b61242b8184846123ec565b505050565b5b8181101561244e576124435f82612418565b600181019050612431565b5050565b601f821115612493576124648161233b565b61246d8461234d565b8101602085101561247c578190505b6124906124888561234d565b830182612430565b50505b505050565b5f82821c905092915050565b5f6124b35f1984600802612498565b1980831691505092915050565b5f6124cb83836124a4565b9150826002028217905092915050565b6124e482611b76565b67ffffffffffffffff8111156124fd576124fc611e37565b5b612507825461213e565b612512828285612452565b5f60209050601f831160018114612543575f8415612531578287015190505b61253b85826124c0565b8655506125a2565b601f1984166125518661233b565b5f5b8281101561257857848901518255600182019150602085019450602081019050612553565b868310156125955784890151612591601f8916826124a4565b8355505b6001600288020188555050505b505050505050565b5f6040820190506125bd5f830185611c94565b6125ca6020830184611d74565b9392505050565b7f4e487b71000000000000000000000000000000000000000000000000000000005f52601260045260245ffdfea2646970667358221220ae0634c25e5acf061c5b4df3cbee73af0ab1930d51aed2871c0acdcf29e04fd264736f6c634300081c0033","linkReferences":{}},"methodIdentifiers":{"approve(address,uint256)":"095ea7b3","balanceOf(address)":"70a08231","getApproved(uint256)":"081812fc","getTokenCounter()":"6e02007d","isApprovedForAll(address,address)":"e985e9c5","mintMixtape(address,string)":"ca47c85f","name()":"06fdde03","owner()":"8da5cb5b","ownerOf(uint256)":"6352211e","renounceOwnership()":"715018a6","safeTransferFrom(address,address,uint256)":"42842e0e","safeTransferFrom(address,address,uint256,bytes)":"b88d4fde","setApprovalForAll(address,bool)":"a22cb465","supportsInterface(bytes4)":"01ffc9a7","symbol()":"95d89b41","tokenCounter()":"d082e381","tokenURI(uint256)":"c87b56dd","transferFrom(address,address,uint256)":"23b872dd","transferOwnership(address)":"f2fde38b"},"id":41}